{
    "contractName": "Transfer",
    "abi": [
        {
            "inputs": [],
            "payable": false,
            "stateMutability": "nonpayable",
            "type": "constructor"
        },
        {
            "constant": true,
            "inputs": [],
            "name": "check",
            "outputs": [
                {
                    "internalType": "address",
                    "name": "",
                    "type": "address"
                }
            ],
            "payable": false,
            "stateMutability": "view",
            "type": "function"
        },
        {
            "constant": true,
            "inputs": [],
            "name": "count",
            "outputs": [
                {
                    "internalType": "uint256",
                    "name": "",
                    "type": "uint256"
                }
            ],
            "payable": false,
            "stateMutability": "view",
            "type": "function"
        },
        {
            "constant": true,
            "inputs": [],
            "name": "ngo",
            "outputs": [
                {
                    "internalType": "address payable",
                    "name": "",
                    "type": "address"
                }
            ],
            "payable": false,
            "stateMutability": "view",
            "type": "function"
        },
        {
            "constant": false,
            "inputs": [
                {
                    "internalType": "address",
                    "name": "_ngo",
                    "type": "address"
                }
            ],
            "name": "setTransaction",
            "outputs": [
                {
                    "internalType": "string",
                    "name": "",
                    "type": "string"
                }
            ],
            "payable": true,
            "stateMutability": "payable",
            "type": "function"
        },
        {
            "constant": false,
            "inputs": [
                {
                    "internalType": "address payable",
                    "name": "_ngo",
                    "type": "address"
                }
            ],
            "name": "getTransaction",
            "outputs": [
                {
                    "internalType": "string",
                    "name": "",
                    "type": "string"
                }
            ],
            "payable": false,
            "stateMutability": "nonpayable",
            "type": "function"
        }
    ],
    "bytecode": "0x608060405234801561001057600080fd5b5060006001819055506104e3806100286000396000f3fe60806040526004361061004a5760003560e01c806306661abd1461004f5780637bb863791461007a578063919840ad14610144578063a113074b1461019b578063cdce11aa146101f2575b600080fd5b34801561005b57600080fd5b506100646102af565b6040518082815260200191505060405180910390f35b34801561008657600080fd5b506100c96004803603602081101561009d57600080fd5b81019080803573ffffffffffffffffffffffffffffffffffffffff1690602001909291905050506102b5565b6040518080602001828103825283818151815260200191508051906020019080838360005b838110156101095780820151818401526020810190506100ee565b50505050905090810190601f1680156101365780820380516001836020036101000a031916815260200191505b509250505060405180910390f35b34801561015057600080fd5b506101596103d1565b604051808273ffffffffffffffffffffffffffffffffffffffff1673ffffffffffffffffffffffffffffffffffffffff16815260200191505060405180910390f35b3480156101a757600080fd5b506101b06103f7565b604051808273ffffffffffffffffffffffffffffffffffffffff1673ffffffffffffffffffffffffffffffffffffffff16815260200191505060405180910390f35b6102346004803603602081101561020857600080fd5b81019080803573ffffffffffffffffffffffffffffffffffffffff16906020019092919050505061041c565b6040518080602001828103825283818151815260200191508051906020019080838360005b83811015610274578082015181840152602081019050610259565b50505050905090810190601f1680156102a15780820380516001836020036101000a031916815260200191505b509250505060405180910390f35b60015481565b6060600260009054906101000a900473ffffffffffffffffffffffffffffffffffffffff1673ffffffffffffffffffffffffffffffffffffffff168273ffffffffffffffffffffffffffffffffffffffff161415610393578173ffffffffffffffffffffffffffffffffffffffff166108fc6001549081150290604051600060405180830381858888f19350505050158015610355573d6000803e3d6000fd5b506040518060400160405280601281526020017f5375636365737366756c6c79206164646564000000000000000000000000000081525090506103cc565b6040518060400160405280601d81526020017f4e6f7420686176696e6720616e792070656e64696e6720616d6f756e7400000081525090505b919050565b600260009054906101000a900473ffffffffffffffffffffffffffffffffffffffff1681565b6000809054906101000a900473ffffffffffffffffffffffffffffffffffffffff1681565b60603460018190555081600260006101000a81548173ffffffffffffffffffffffffffffffffffffffff021916908373ffffffffffffffffffffffffffffffffffffffff160217905550606060405180606001604052806022815260200161048d6022913990508091505091905056fe4d6f6e65792066726f6d20796f7572206163636f756e742064656475637465642121a265627a7a72315820fded9e41327ada0bedb83fb597aa6b40f7604f418093cc672d9927b74d16c8ec64736f6c63430005100032",
    "source": "pragma solidity >=0.5.0;\r\n\r\ncontract Transfer{\r\n    address payable public ngo;\r\n    uint public count;\r\n    address public check;\r\n\r\n    constructor() public{\r\n        count = 0;\r\n    }\r\n\r\n    function setTransaction(address _ngo) public payable returns(string memory){\r\n        count = msg.value;\r\n        check = _ngo;\r\n        string memory str = \"Money from your account deducted!!\";\r\n        return str;\r\n    }\r\n\r\n    function getTransaction(address payable _ngo) public returns(string memory){\r\n         if(_ngo==check){\r\n             _ngo.transfer(count);\r\n             return \"Successfully added\";\r\n         }else{\r\n             return \"Not having any pending amount\";\r\n         }\r\n    }\r\n}",
    "sourcePath": "C:\\Users\\sg982\\OneDrive\\Desktop\\Project\\Blockchain\\contracts\\Transfer.sol",
    "compiler": {
        "name": "solc",
        "version": "0.5.16+commit.9c3226ce.Emscripten.clang"
    },
    "schemaVersion": "3.0.23",
    "updatedAt": "2020-04-11T17:21:47.951Z",
    "networkType": "ethereum",
    "devdoc": {
        "methods": {}
    },
    "userdoc": {
        "methods": {}
    }
}