{
  "contractName": "Transfer",
  "abi": [
    {
      "constant": false,
      "inputs": [
        {
          "internalType": "address",
          "name": "_ngo",
          "type": "address"
        }
      ],
      "name": "setTransaction",
      "outputs": [],
      "payable": true,
      "stateMutability": "payable",
      "type": "function"
    },
    {
      "constant": false,
      "inputs": [
        {
          "internalType": "address payable",
          "name": "_ngo",
          "type": "address"
        }
      ],
      "name": "getTransaction",
      "outputs": [],
      "payable": false,
      "stateMutability": "nonpayable",
      "type": "function"
    },
    {
      "constant": true,
      "inputs": [],
      "name": "getAllSenderAccount",
      "outputs": [
        {
          "internalType": "address[]",
          "name": "",
          "type": "address[]"
        }
      ],
      "payable": false,
      "stateMutability": "view",
      "type": "function"
    },
    {
      "constant": true,
      "inputs": [
        {
          "internalType": "address",
          "name": "_sender",
          "type": "address"
        }
      ],
      "name": "getAllInfoByAccount",
      "outputs": [
        {
          "components": [
            {
              "internalType": "uint256",
              "name": "count",
              "type": "uint256"
            },
            {
              "internalType": "address",
              "name": "ngo",
              "type": "address"
            }
          ],
          "internalType": "struct Transfer.Passbook[]",
          "name": "",
          "type": "tuple[]"
        }
      ],
      "payable": false,
      "stateMutability": "view",
      "type": "function"
    }
  ],
  "bytecode": "0x608060405234801561001057600080fd5b50610b1d806100206000396000f3fe60806040526004361061003f5760003560e01c806308341b6e1461004457806353a5315c1461006f5780637bb86379146100ac578063cdce11aa146100d5575b600080fd5b34801561005057600080fd5b506100596100f1565b60405161006691906109a8565b60405180910390f35b34801561007b57600080fd5b506100966004803603610091919081019061081d565b61017f565b6040516100a391906109ca565b60405180910390f35b3480156100b857600080fd5b506100d360048036036100ce9190810190610846565b61027c565b005b6100ef60048036036100ea919081019061081d565b61048c565b005b6060600180548060200260200160405190810160405280929190818152602001828054801561017557602002820191906000526020600020905b8160009054906101000a900473ffffffffffffffffffffffffffffffffffffffff1673ffffffffffffffffffffffffffffffffffffffff168152602001906001019080831161012b575b5050505050905090565b60606000808373ffffffffffffffffffffffffffffffffffffffff1673ffffffffffffffffffffffffffffffffffffffff168152602001908152602001600020805480602002602001604051908101604052809291908181526020016000905b828210156102715783829060005260206000209060020201604051806040016040529081600082015481526020016001820160009054906101000a900473ffffffffffffffffffffffffffffffffffffffff1673ffffffffffffffffffffffffffffffffffffffff1673ffffffffffffffffffffffffffffffffffffffff1681525050815260200190600101906101df565b505050509050919050565b60008090505b6000803373ffffffffffffffffffffffffffffffffffffffff1673ffffffffffffffffffffffffffffffffffffffff16815260200190815260200160002080549050811015610488578173ffffffffffffffffffffffffffffffffffffffff166000803373ffffffffffffffffffffffffffffffffffffffff1673ffffffffffffffffffffffffffffffffffffffff168152602001908152602001600020828154811061032b57fe5b906000526020600020906002020160010160009054906101000a900473ffffffffffffffffffffffffffffffffffffffff1673ffffffffffffffffffffffffffffffffffffffff16141561047b578173ffffffffffffffffffffffffffffffffffffffff166108fc6000803373ffffffffffffffffffffffffffffffffffffffff1673ffffffffffffffffffffffffffffffffffffffff16815260200190815260200160002083815481106103dc57fe5b9060005260206000209060020201600001549081150290604051600060405180830381858888f19350505050158015610419573d6000803e3d6000fd5b5060008060003373ffffffffffffffffffffffffffffffffffffffff1673ffffffffffffffffffffffffffffffffffffffff168152602001908152602001600020828154811061046557fe5b9060005260206000209060020201600001819055505b8080600101915050610282565b5050565b600080905060008090505b6000803373ffffffffffffffffffffffffffffffffffffffff1673ffffffffffffffffffffffffffffffffffffffff1681526020019081526020016000208054905081101561065b578273ffffffffffffffffffffffffffffffffffffffff166000803373ffffffffffffffffffffffffffffffffffffffff1673ffffffffffffffffffffffffffffffffffffffff168152602001908152602001600020828154811061054057fe5b906000526020600020906002020160010160009054906101000a900473ffffffffffffffffffffffffffffffffffffffff1673ffffffffffffffffffffffffffffffffffffffff16141561064e5760019150346000803373ffffffffffffffffffffffffffffffffffffffff1673ffffffffffffffffffffffffffffffffffffffff16815260200190815260200160002082815481106105dc57fe5b906000526020600020906002020160000154016000803373ffffffffffffffffffffffffffffffffffffffff1673ffffffffffffffffffffffffffffffffffffffff168152602001908152602001600020828154811061063857fe5b9060005260206000209060020201600001819055505b8080600101915050610497565b50600181146107bf5761066c6107c3565b60405180604001604052803481526020018473ffffffffffffffffffffffffffffffffffffffff1681525090506000803373ffffffffffffffffffffffffffffffffffffffff1673ffffffffffffffffffffffffffffffffffffffff16815260200190815260200160002081908060018154018082558091505090600182039060005260206000209060020201600090919290919091506000820151816000015560208201518160010160006101000a81548173ffffffffffffffffffffffffffffffffffffffff021916908373ffffffffffffffffffffffffffffffffffffffff16021790555050505060013390806001815401808255809150509060018203906000526020600020016000909192909190916101000a81548173ffffffffffffffffffffffffffffffffffffffff021916908373ffffffffffffffffffffffffffffffffffffffff16021790555050505b5050565b604051806040016040528060008152602001600073ffffffffffffffffffffffffffffffffffffffff1681525090565b60008135905061080281610aac565b92915050565b60008135905061081781610ac3565b92915050565b60006020828403121561082f57600080fd5b600061083d848285016107f3565b91505092915050565b60006020828403121561085857600080fd5b600061086684828501610808565b91505092915050565b600061087b838361089f565b60208301905092915050565b6000610893838361096a565b60408301905092915050565b6108a881610a5e565b82525050565b60006108b982610a0c565b6108c38185610a3c565b93506108ce836109ec565b8060005b838110156108ff5781516108e6888261086f565b97506108f183610a22565b9250506001810190506108d2565b5085935050505092915050565b600061091782610a17565b6109218185610a4d565b935061092c836109fc565b8060005b8381101561095d5781516109448882610887565b975061094f83610a2f565b925050600181019050610930565b5085935050505092915050565b6040820160008201516109806000850182610999565b506020820151610993602085018261089f565b50505050565b6109a281610aa2565b82525050565b600060208201905081810360008301526109c281846108ae565b905092915050565b600060208201905081810360008301526109e4818461090c565b905092915050565b6000819050602082019050919050565b6000819050602082019050919050565b600081519050919050565b600081519050919050565b6000602082019050919050565b6000602082019050919050565b600082825260208201905092915050565b600082825260208201905092915050565b6000610a6982610a82565b9050919050565b6000610a7b82610a82565b9050919050565b600073ffffffffffffffffffffffffffffffffffffffff82169050919050565b6000819050919050565b610ab581610a5e565b8114610ac057600080fd5b50565b610acc81610a70565b8114610ad757600080fd5b5056fea365627a7a72315820aadab7f652bef63fe896c1d4e21cb2835c0161461a17e065348c69615788a8936c6578706572696d656e74616cf564736f6c63430005100040",
  "source": "pragma solidity >=0.5.0;\r\npragma experimental ABIEncoderV2;\r\n\r\ncontract Transfer{\r\n\r\n    struct Passbook{\r\n        uint256 count;\r\n        address ngo;\r\n    }\r\n    mapping (address => Passbook[]) Passbooks ;\r\n    address[] senderaccounts;\r\n\r\n    function setTransaction(address _ngo) public payable{\r\n        uint256 c = 0;\r\n        for(uint256 i = 0;i<Passbooks[msg.sender].length;i++){\r\n            if(Passbooks[msg.sender][i].ngo == _ngo){\r\n                c = 1;\r\n                Passbooks[msg.sender][i].count = Passbooks[msg.sender][i].count + msg.value;\r\n            }}\r\n            if(c!=1){\r\n                 Passbook memory newEntry = Passbook(msg.value,_ngo);\r\n                Passbooks[msg.sender].push(newEntry);\r\n                senderaccounts.push(msg.sender);\r\n            }\r\n    }\r\n\r\n    function getTransaction(address payable _ngo) public{\r\n        for(uint256 i = 0 ;i < Passbooks[msg.sender].length;i++){\r\n            if(Passbooks[msg.sender][i].ngo==_ngo){\r\n                _ngo.transfer(Passbooks[msg.sender][i].count);\r\n                Passbooks[msg.sender][i].count = 0;\r\n            }\r\n        }\r\n    }\r\n   function getAllSenderAccount() public view returns(address[] memory){\r\n        return (senderaccounts);\r\n    }\r\n    function getAllInfoByAccount(address _sender) public view returns(Passbook[] memory){\r\n        return Passbooks[_sender];\r\n    }\r\n\r\n}",
  "sourcePath": "C:\\Users\\sg982\\OneDrive\\Desktop\\Project\\Blockchain\\contracts\\Transfer.sol",
  "compiler": {
    "name": "solc",
    "version": "0.5.16+commit.9c3226ce.Emscripten.clang"
  },
  "schemaVersion": "3.0.23",
  "updatedAt": "2020-04-12T19:11:17.406Z",
  "networkType": "ethereum",
  "devdoc": {
    "methods": {}
  },
  "userdoc": {
    "methods": {}
  }
}